{
  "_format": "hh-sol-artifact-1",
  "contractName": "Dappazon",
  "sourceName": "contracts/Dappazon.sol",
  "abi": [
    {
      "inputs": [],
      "stateMutability": "nonpayable",
      "type": "constructor"
    },
    {
      "anonymous": false,
      "inputs": [
        {
          "indexed": false,
          "internalType": "address",
          "name": "buyer",
          "type": "address"
        },
        {
          "indexed": false,
          "internalType": "uint256",
          "name": "orderId",
          "type": "uint256"
        },
        {
          "indexed": false,
          "internalType": "uint256",
          "name": "itemId",
          "type": "uint256"
        }
      ],
      "name": "Buy",
      "type": "event"
    },
    {
      "anonymous": false,
      "inputs": [
        {
          "indexed": false,
          "internalType": "string",
          "name": "name",
          "type": "string"
        },
        {
          "indexed": false,
          "internalType": "uint256",
          "name": "cost",
          "type": "uint256"
        },
        {
          "indexed": false,
          "internalType": "uint256",
          "name": "quantity",
          "type": "uint256"
        }
      ],
      "name": "List",
      "type": "event"
    },
    {
      "inputs": [
        {
          "internalType": "uint256",
          "name": "_id",
          "type": "uint256"
        }
      ],
      "name": "buy",
      "outputs": [],
      "stateMutability": "payable",
      "type": "function"
    },
    {
      "inputs": [
        {
          "internalType": "uint256",
          "name": "",
          "type": "uint256"
        }
      ],
      "name": "items",
      "outputs": [
        {
          "internalType": "uint256",
          "name": "id",
          "type": "uint256"
        },
        {
          "internalType": "string",
          "name": "name",
          "type": "string"
        },
        {
          "internalType": "string",
          "name": "category",
          "type": "string"
        },
        {
          "internalType": "string",
          "name": "image",
          "type": "string"
        },
        {
          "internalType": "uint256",
          "name": "cost",
          "type": "uint256"
        },
        {
          "internalType": "uint256",
          "name": "rating",
          "type": "uint256"
        },
        {
          "internalType": "uint256",
          "name": "stock",
          "type": "uint256"
        }
      ],
      "stateMutability": "view",
      "type": "function"
    },
    {
      "inputs": [
        {
          "internalType": "uint256",
          "name": "_id",
          "type": "uint256"
        },
        {
          "internalType": "string",
          "name": "_name",
          "type": "string"
        },
        {
          "internalType": "string",
          "name": "_category",
          "type": "string"
        },
        {
          "internalType": "string",
          "name": "_image",
          "type": "string"
        },
        {
          "internalType": "uint256",
          "name": "_cost",
          "type": "uint256"
        },
        {
          "internalType": "uint256",
          "name": "_rating",
          "type": "uint256"
        },
        {
          "internalType": "uint256",
          "name": "_stock",
          "type": "uint256"
        }
      ],
      "name": "list",
      "outputs": [],
      "stateMutability": "nonpayable",
      "type": "function"
    },
    {
      "inputs": [
        {
          "internalType": "address",
          "name": "",
          "type": "address"
        }
      ],
      "name": "orderCount",
      "outputs": [
        {
          "internalType": "uint256",
          "name": "",
          "type": "uint256"
        }
      ],
      "stateMutability": "view",
      "type": "function"
    },
    {
      "inputs": [
        {
          "internalType": "address",
          "name": "",
          "type": "address"
        },
        {
          "internalType": "uint256",
          "name": "",
          "type": "uint256"
        }
      ],
      "name": "orders",
      "outputs": [
        {
          "internalType": "uint256",
          "name": "time",
          "type": "uint256"
        },
        {
          "components": [
            {
              "internalType": "uint256",
              "name": "id",
              "type": "uint256"
            },
            {
              "internalType": "string",
              "name": "name",
              "type": "string"
            },
            {
              "internalType": "string",
              "name": "category",
              "type": "string"
            },
            {
              "internalType": "string",
              "name": "image",
              "type": "string"
            },
            {
              "internalType": "uint256",
              "name": "cost",
              "type": "uint256"
            },
            {
              "internalType": "uint256",
              "name": "rating",
              "type": "uint256"
            },
            {
              "internalType": "uint256",
              "name": "stock",
              "type": "uint256"
            }
          ],
          "internalType": "struct Dappazon.Item",
          "name": "item",
          "type": "tuple"
        }
      ],
      "stateMutability": "view",
      "type": "function"
    },
    {
      "inputs": [],
      "name": "owner",
      "outputs": [
        {
          "internalType": "address",
          "name": "",
          "type": "address"
        }
      ],
      "stateMutability": "view",
      "type": "function"
    }
  ],
  "bytecode": "0x608060405234801561001057600080fd5b50336000806101000a81548173ffffffffffffffffffffffffffffffffffffffff021916908373ffffffffffffffffffffffffffffffffffffffff160217905550611598806100606000396000f3fe6080604052600436106100555760003560e01c8063713d856b1461005a578063793b8c6d146100975780638da5cb5b146100d5578063bfb231d214610100578063d96a094a14610143578063eea8a7e81461015f575b600080fd5b34801561006657600080fd5b50610081600480360381019061007c9190610bce565b610188565b60405161008e9190610c14565b60405180910390f35b3480156100a357600080fd5b506100be60048036038101906100b99190610c5b565b6101a0565b6040516100cc929190610de4565b60405180910390f35b3480156100e157600080fd5b506100ea6103b9565b6040516100f79190610e23565b60405180910390f35b34801561010c57600080fd5b5061012760048036038101906101229190610e3e565b6103dd565b60405161013a9796959493929190610eb5565b60405180910390f35b61015d60048036038101906101589190610e3e565b6105b7565b005b34801561016b57600080fd5b506101866004803603810190610181919061106e565b610a07565b005b60026020528060005260406000206000915090505481565b600360205281600052604060002060205280600052604060002060009150915050806000015490806001016040518060e0016040529081600082015481526020016001820180546101f090611193565b80601f016020809104026020016040519081016040528092919081815260200182805461021c90611193565b80156102695780601f1061023e57610100808354040283529160200191610269565b820191906000526020600020905b81548152906001019060200180831161024c57829003601f168201915b5050505050815260200160028201805461028290611193565b80601f01602080910402602001604051908101604052809291908181526020018280546102ae90611193565b80156102fb5780601f106102d0576101008083540402835291602001916102fb565b820191906000526020600020905b8154815290600101906020018083116102de57829003601f168201915b5050505050815260200160038201805461031490611193565b80601f016020809104026020016040519081016040528092919081815260200182805461034090611193565b801561038d5780601f106103625761010080835404028352916020019161038d565b820191906000526020600020905b81548152906001019060200180831161037057829003601f168201915b505050505081526020016004820154815260200160058201548152602001600682015481525050905082565b60008054906101000a900473ffffffffffffffffffffffffffffffffffffffff1681565b600160205280600052604060002060009150905080600001549080600101805461040690611193565b80601f016020809104026020016040519081016040528092919081815260200182805461043290611193565b801561047f5780601f106104545761010080835404028352916020019161047f565b820191906000526020600020905b81548152906001019060200180831161046257829003601f168201915b50505050509080600201805461049490611193565b80601f01602080910402602001604051908101604052809291908181526020018280546104c090611193565b801561050d5780601f106104e25761010080835404028352916020019161050d565b820191906000526020600020905b8154815290600101906020018083116104f057829003601f168201915b50505050509080600301805461052290611193565b80601f016020809104026020016040519081016040528092919081815260200182805461054e90611193565b801561059b5780601f106105705761010080835404028352916020019161059b565b820191906000526020600020905b81548152906001019060200180831161057e57829003601f168201915b5050505050908060040154908060050154908060060154905087565b6000600160008381526020019081526020016000206040518060e0016040529081600082015481526020016001820180546105f190611193565b80601f016020809104026020016040519081016040528092919081815260200182805461061d90611193565b801561066a5780601f1061063f5761010080835404028352916020019161066a565b820191906000526020600020905b81548152906001019060200180831161064d57829003601f168201915b5050505050815260200160028201805461068390611193565b80601f01602080910402602001604051908101604052809291908181526020018280546106af90611193565b80156106fc5780601f106106d1576101008083540402835291602001916106fc565b820191906000526020600020905b8154815290600101906020018083116106df57829003601f168201915b5050505050815260200160038201805461071590611193565b80601f016020809104026020016040519081016040528092919081815260200182805461074190611193565b801561078e5780601f106107635761010080835404028352916020019161078e565b820191906000526020600020905b81548152906001019060200180831161077157829003601f168201915b505050505081526020016004820154815260200160058201548152602001600682015481525050905080608001513410156107c857600080fd5b60008160c00151116107d957600080fd5b60006040518060400160405280428152602001838152509050600260003373ffffffffffffffffffffffffffffffffffffffff1673ffffffffffffffffffffffffffffffffffffffff1681526020019081526020016000206000815480929190610842906111f3565b919050555080600360003373ffffffffffffffffffffffffffffffffffffffff1673ffffffffffffffffffffffffffffffffffffffff1681526020019081526020016000206000600260003373ffffffffffffffffffffffffffffffffffffffff1673ffffffffffffffffffffffffffffffffffffffff1681526020019081526020016000205481526020019081526020016000206000820151816000015560208201518160010160008201518160000155602082015181600101908161090991906113e7565b50604082015181600201908161091f91906113e7565b50606082015181600301908161093591906113e7565b506080820151816004015560a0820151816005015560c08201518160060155505090505060018260c0015161096a91906114b9565b60016000858152602001908152602001600020600601819055507f1cbc5ab135991bd2b6a4b034a04aa2aa086dac1371cb9b16b8b5e2ed6b036bed33600260003373ffffffffffffffffffffffffffffffffffffffff1673ffffffffffffffffffffffffffffffffffffffff1681526020019081526020016000205484600001516040516109fa939291906114ed565b60405180910390a1505050565b60008054906101000a900473ffffffffffffffffffffffffffffffffffffffff1673ffffffffffffffffffffffffffffffffffffffff163373ffffffffffffffffffffffffffffffffffffffff1614610a5f57600080fd5b60006040518060e0016040528089815260200188815260200187815260200186815260200185815260200184815260200183815250905080600160008a8152602001908152602001600020600082015181600001556020820151816001019081610ac991906113e7565b506040820151816002019081610adf91906113e7565b506060820151816003019081610af591906113e7565b506080820151816004015560a0820151816005015560c082015181600601559050507ffdbe2a012c10ec01592653978eaa09b5ca60b143a0e617505b2ebcbd911ec5b8878584604051610b4a93929190611524565b60405180910390a15050505050505050565b6000604051905090565b600080fd5b600080fd5b600073ffffffffffffffffffffffffffffffffffffffff82169050919050565b6000610b9b82610b70565b9050919050565b610bab81610b90565b8114610bb657600080fd5b50565b600081359050610bc881610ba2565b92915050565b600060208284031215610be457610be3610b66565b5b6000610bf284828501610bb9565b91505092915050565b6000819050919050565b610c0e81610bfb565b82525050565b6000602082019050610c296000830184610c05565b92915050565b610c3881610bfb565b8114610c4357600080fd5b50565b600081359050610c5581610c2f565b92915050565b60008060408385031215610c7257610c71610b66565b5b6000610c8085828601610bb9565b9250506020610c9185828601610c46565b9150509250929050565b610ca481610bfb565b82525050565b600081519050919050565b600082825260208201905092915050565b60005b83811015610ce4578082015181840152602081019050610cc9565b60008484015250505050565b6000601f19601f8301169050919050565b6000610d0c82610caa565b610d168185610cb5565b9350610d26818560208601610cc6565b610d2f81610cf0565b840191505092915050565b600060e083016000830151610d526000860182610c9b565b5060208301518482036020860152610d6a8282610d01565b91505060408301518482036040860152610d848282610d01565b91505060608301518482036060860152610d9e8282610d01565b9150506080830151610db36080860182610c9b565b5060a0830151610dc660a0860182610c9b565b5060c0830151610dd960c0860182610c9b565b508091505092915050565b6000604082019050610df96000830185610c05565b8181036020830152610e0b8184610d3a565b90509392505050565b610e1d81610b90565b82525050565b6000602082019050610e386000830184610e14565b92915050565b600060208284031215610e5457610e53610b66565b5b6000610e6284828501610c46565b91505092915050565b600082825260208201905092915050565b6000610e8782610caa565b610e918185610e6b565b9350610ea1818560208601610cc6565b610eaa81610cf0565b840191505092915050565b600060e082019050610eca600083018a610c05565b8181036020830152610edc8189610e7c565b90508181036040830152610ef08188610e7c565b90508181036060830152610f048187610e7c565b9050610f136080830186610c05565b610f2060a0830185610c05565b610f2d60c0830184610c05565b98975050505050505050565b600080fd5b600080fd5b7f4e487b7100000000000000000000000000000000000000000000000000000000600052604160045260246000fd5b610f7b82610cf0565b810181811067ffffffffffffffff82111715610f9a57610f99610f43565b5b80604052505050565b6000610fad610b5c565b9050610fb98282610f72565b919050565b600067ffffffffffffffff821115610fd957610fd8610f43565b5b610fe282610cf0565b9050602081019050919050565b82818337600083830152505050565b600061101161100c84610fbe565b610fa3565b90508281526020810184848401111561102d5761102c610f3e565b5b611038848285610fef565b509392505050565b600082601f83011261105557611054610f39565b5b8135611065848260208601610ffe565b91505092915050565b600080600080600080600060e0888a03121561108d5761108c610b66565b5b600061109b8a828b01610c46565b975050602088013567ffffffffffffffff8111156110bc576110bb610b6b565b5b6110c88a828b01611040565b965050604088013567ffffffffffffffff8111156110e9576110e8610b6b565b5b6110f58a828b01611040565b955050606088013567ffffffffffffffff81111561111657611115610b6b565b5b6111228a828b01611040565b94505060806111338a828b01610c46565b93505060a06111448a828b01610c46565b92505060c06111558a828b01610c46565b91505092959891949750929550565b7f4e487b7100000000000000000000000000000000000000000000000000000000600052602260045260246000fd5b600060028204905060018216806111ab57607f821691505b6020821081036111be576111bd611164565b5b50919050565b7f4e487b7100000000000000000000000000000000000000000000000000000000600052601160045260246000fd5b60006111fe82610bfb565b91507fffffffffffffffffffffffffffffffffffffffffffffffffffffffffffffffff82036112305761122f6111c4565b5b600182019050919050565b60008190508160005260206000209050919050565b60006020601f8301049050919050565b600082821b905092915050565b60006008830261129d7fffffffffffffffffffffffffffffffffffffffffffffffffffffffffffffffff82611260565b6112a78683611260565b95508019841693508086168417925050509392505050565b6000819050919050565b60006112e46112df6112da84610bfb565b6112bf565b610bfb565b9050919050565b6000819050919050565b6112fe836112c9565b61131261130a826112eb565b84845461126d565b825550505050565b600090565b61132761131a565b6113328184846112f5565b505050565b5b818110156113565761134b60008261131f565b600181019050611338565b5050565b601f82111561139b5761136c8161123b565b61137584611250565b81016020851015611384578190505b61139861139085611250565b830182611337565b50505b505050565b600082821c905092915050565b60006113be600019846008026113a0565b1980831691505092915050565b60006113d783836113ad565b9150826002028217905092915050565b6113f082610caa565b67ffffffffffffffff81111561140957611408610f43565b5b6114138254611193565b61141e82828561135a565b600060209050601f831160018114611451576000841561143f578287015190505b61144985826113cb565b8655506114b1565b601f19841661145f8661123b565b60005b8281101561148757848901518255600182019150602085019450602081019050611462565b868310156114a457848901516114a0601f8916826113ad565b8355505b6001600288020188555050505b505050505050565b60006114c482610bfb565b91506114cf83610bfb565b92508282039050818111156114e7576114e66111c4565b5b92915050565b60006060820190506115026000830186610e14565b61150f6020830185610c05565b61151c6040830184610c05565b949350505050565b6000606082019050818103600083015261153e8186610e7c565b905061154d6020830185610c05565b61155a6040830184610c05565b94935050505056fea2646970667358221220cb4c87493c9dead3086b8538b43052f05630498c8ed8d6907ce0fe335ca9ab8e64736f6c63430008110033",
  "linkReferences": {},
  "deployedLinkReferences": {}
}