{
  "_format": "hh-sol-artifact-1",
  "contractName": "Dappazon",
  "sourceName": "contracts/Dappazon.sol",
  "abi": [
    {
      "inputs": [],
      "stateMutability": "nonpayable",
      "type": "constructor"
    },
    {
      "anonymous": false,
      "inputs": [
        {
          "indexed": false,
          "internalType": "address",
          "name": "buyer",
          "type": "address"
        },
        {
          "indexed": false,
          "internalType": "uint256",
          "name": "orderId",
          "type": "uint256"
        },
        {
          "indexed": false,
          "internalType": "uint256",
          "name": "itemId",
          "type": "uint256"
        }
      ],
      "name": "Buy",
      "type": "event"
    },
    {
      "anonymous": false,
      "inputs": [
        {
          "indexed": false,
          "internalType": "string",
          "name": "name",
          "type": "string"
        },
        {
          "indexed": false,
          "internalType": "uint256",
          "name": "cost",
          "type": "uint256"
        },
        {
          "indexed": false,
          "internalType": "uint256",
          "name": "quantity",
          "type": "uint256"
        }
      ],
      "name": "List",
      "type": "event"
    },
    {
      "inputs": [
        {
          "internalType": "uint256",
          "name": "_id",
          "type": "uint256"
        }
      ],
      "name": "buy",
      "outputs": [],
      "stateMutability": "payable",
      "type": "function"
    },
    {
      "inputs": [],
      "name": "getBalance",
      "outputs": [
        {
          "internalType": "uint256",
          "name": "",
          "type": "uint256"
        }
      ],
      "stateMutability": "view",
      "type": "function"
    },
    {
      "inputs": [
        {
          "internalType": "uint256",
          "name": "",
          "type": "uint256"
        }
      ],
      "name": "items",
      "outputs": [
        {
          "internalType": "uint256",
          "name": "id",
          "type": "uint256"
        },
        {
          "internalType": "string",
          "name": "name",
          "type": "string"
        },
        {
          "internalType": "string",
          "name": "category",
          "type": "string"
        },
        {
          "internalType": "string",
          "name": "image",
          "type": "string"
        },
        {
          "internalType": "uint256",
          "name": "cost",
          "type": "uint256"
        },
        {
          "internalType": "uint256",
          "name": "rating",
          "type": "uint256"
        },
        {
          "internalType": "uint256",
          "name": "stock",
          "type": "uint256"
        }
      ],
      "stateMutability": "view",
      "type": "function"
    },
    {
      "inputs": [
        {
          "internalType": "uint256",
          "name": "_id",
          "type": "uint256"
        },
        {
          "internalType": "string",
          "name": "_name",
          "type": "string"
        },
        {
          "internalType": "string",
          "name": "_category",
          "type": "string"
        },
        {
          "internalType": "string",
          "name": "_image",
          "type": "string"
        },
        {
          "internalType": "uint256",
          "name": "_cost",
          "type": "uint256"
        },
        {
          "internalType": "uint256",
          "name": "_rating",
          "type": "uint256"
        },
        {
          "internalType": "uint256",
          "name": "_stock",
          "type": "uint256"
        }
      ],
      "name": "list",
      "outputs": [],
      "stateMutability": "nonpayable",
      "type": "function"
    },
    {
      "inputs": [
        {
          "internalType": "address",
          "name": "",
          "type": "address"
        }
      ],
      "name": "orderCount",
      "outputs": [
        {
          "internalType": "uint256",
          "name": "",
          "type": "uint256"
        }
      ],
      "stateMutability": "view",
      "type": "function"
    },
    {
      "inputs": [
        {
          "internalType": "address",
          "name": "",
          "type": "address"
        },
        {
          "internalType": "uint256",
          "name": "",
          "type": "uint256"
        }
      ],
      "name": "orders",
      "outputs": [
        {
          "internalType": "uint256",
          "name": "time",
          "type": "uint256"
        },
        {
          "components": [
            {
              "internalType": "uint256",
              "name": "id",
              "type": "uint256"
            },
            {
              "internalType": "string",
              "name": "name",
              "type": "string"
            },
            {
              "internalType": "string",
              "name": "category",
              "type": "string"
            },
            {
              "internalType": "string",
              "name": "image",
              "type": "string"
            },
            {
              "internalType": "uint256",
              "name": "cost",
              "type": "uint256"
            },
            {
              "internalType": "uint256",
              "name": "rating",
              "type": "uint256"
            },
            {
              "internalType": "uint256",
              "name": "stock",
              "type": "uint256"
            }
          ],
          "internalType": "struct Dappazon.Item",
          "name": "item",
          "type": "tuple"
        }
      ],
      "stateMutability": "view",
      "type": "function"
    },
    {
      "inputs": [],
      "name": "owner",
      "outputs": [
        {
          "internalType": "address",
          "name": "",
          "type": "address"
        }
      ],
      "stateMutability": "view",
      "type": "function"
    },
    {
      "inputs": [],
      "name": "withdraw",
      "outputs": [],
      "stateMutability": "nonpayable",
      "type": "function"
    }
  ],
  "bytecode": "0x608060405234801561001057600080fd5b50336000806101000a81548173ffffffffffffffffffffffffffffffffffffffff021916908373ffffffffffffffffffffffffffffffffffffffff160217905550611740806100606000396000f3fe60806040526004361061007b5760003560e01c80638da5cb5b1161004e5780638da5cb5b1461013d578063bfb231d214610168578063d96a094a146101ab578063eea8a7e8146101c75761007b565b806312065fe0146100805780633ccfd60b146100ab578063713d856b146100c2578063793b8c6d146100ff575b600080fd5b34801561008c57600080fd5b506100956101f0565b6040516100a29190610cd7565b60405180910390f35b3480156100b757600080fd5b506100c06101f8565b005b3480156100ce57600080fd5b506100e960048036038101906100e49190610d64565b6102ea565b6040516100f69190610cd7565b60405180910390f35b34801561010b57600080fd5b5061012660048036038101906101219190610dbd565b610302565b604051610134929190610f46565b60405180910390f35b34801561014957600080fd5b5061015261051b565b60405161015f9190610f85565b60405180910390f35b34801561017457600080fd5b5061018f600480360381019061018a9190610fa0565b61053f565b6040516101a29796959493929190611017565b60405180910390f35b6101c560048036038101906101c09190610fa0565b610719565b005b3480156101d357600080fd5b506101ee60048036038101906101e991906111d0565b610b69565b005b600047905090565b60008054906101000a900473ffffffffffffffffffffffffffffffffffffffff1673ffffffffffffffffffffffffffffffffffffffff163373ffffffffffffffffffffffffffffffffffffffff161461025057600080fd5b60008060009054906101000a900473ffffffffffffffffffffffffffffffffffffffff1673ffffffffffffffffffffffffffffffffffffffff1647604051610297906112f7565b60006040518083038185875af1925050503d80600081146102d4576040519150601f19603f3d011682016040523d82523d6000602084013e6102d9565b606091505b50509050806102e757600080fd5b50565b60026020528060005260406000206000915090505481565b600360205281600052604060002060205280600052604060002060009150915050806000015490806001016040518060e0016040529081600082015481526020016001820180546103529061133b565b80601f016020809104026020016040519081016040528092919081815260200182805461037e9061133b565b80156103cb5780601f106103a0576101008083540402835291602001916103cb565b820191906000526020600020905b8154815290600101906020018083116103ae57829003601f168201915b505050505081526020016002820180546103e49061133b565b80601f01602080910402602001604051908101604052809291908181526020018280546104109061133b565b801561045d5780601f106104325761010080835404028352916020019161045d565b820191906000526020600020905b81548152906001019060200180831161044057829003601f168201915b505050505081526020016003820180546104769061133b565b80601f01602080910402602001604051908101604052809291908181526020018280546104a29061133b565b80156104ef5780601f106104c4576101008083540402835291602001916104ef565b820191906000526020600020905b8154815290600101906020018083116104d257829003601f168201915b505050505081526020016004820154815260200160058201548152602001600682015481525050905082565b60008054906101000a900473ffffffffffffffffffffffffffffffffffffffff1681565b60016020528060005260406000206000915090508060000154908060010180546105689061133b565b80601f01602080910402602001604051908101604052809291908181526020018280546105949061133b565b80156105e15780601f106105b6576101008083540402835291602001916105e1565b820191906000526020600020905b8154815290600101906020018083116105c457829003601f168201915b5050505050908060020180546105f69061133b565b80601f01602080910402602001604051908101604052809291908181526020018280546106229061133b565b801561066f5780601f106106445761010080835404028352916020019161066f565b820191906000526020600020905b81548152906001019060200180831161065257829003601f168201915b5050505050908060030180546106849061133b565b80601f01602080910402602001604051908101604052809291908181526020018280546106b09061133b565b80156106fd5780601f106106d2576101008083540402835291602001916106fd565b820191906000526020600020905b8154815290600101906020018083116106e057829003601f168201915b5050505050908060040154908060050154908060060154905087565b6000600160008381526020019081526020016000206040518060e0016040529081600082015481526020016001820180546107539061133b565b80601f016020809104026020016040519081016040528092919081815260200182805461077f9061133b565b80156107cc5780601f106107a1576101008083540402835291602001916107cc565b820191906000526020600020905b8154815290600101906020018083116107af57829003601f168201915b505050505081526020016002820180546107e59061133b565b80601f01602080910402602001604051908101604052809291908181526020018280546108119061133b565b801561085e5780601f106108335761010080835404028352916020019161085e565b820191906000526020600020905b81548152906001019060200180831161084157829003601f168201915b505050505081526020016003820180546108779061133b565b80601f01602080910402602001604051908101604052809291908181526020018280546108a39061133b565b80156108f05780601f106108c5576101008083540402835291602001916108f0565b820191906000526020600020905b8154815290600101906020018083116108d357829003601f168201915b5050505050815260200160048201548152602001600582015481526020016006820154815250509050806080015134101561092a57600080fd5b60008160c001511161093b57600080fd5b60006040518060400160405280428152602001838152509050600260003373ffffffffffffffffffffffffffffffffffffffff1673ffffffffffffffffffffffffffffffffffffffff16815260200190815260200160002060008154809291906109a49061139b565b919050555080600360003373ffffffffffffffffffffffffffffffffffffffff1673ffffffffffffffffffffffffffffffffffffffff1681526020019081526020016000206000600260003373ffffffffffffffffffffffffffffffffffffffff1673ffffffffffffffffffffffffffffffffffffffff16815260200190815260200160002054815260200190815260200160002060008201518160000155602082015181600101600082015181600001556020820151816001019081610a6b919061158f565b506040820151816002019081610a81919061158f565b506060820151816003019081610a97919061158f565b506080820151816004015560a0820151816005015560c08201518160060155505090505060018260c00151610acc9190611661565b60016000858152602001908152602001600020600601819055507f1cbc5ab135991bd2b6a4b034a04aa2aa086dac1371cb9b16b8b5e2ed6b036bed33600260003373ffffffffffffffffffffffffffffffffffffffff1673ffffffffffffffffffffffffffffffffffffffff168152602001908152602001600020548460000151604051610b5c93929190611695565b60405180910390a1505050565b60008054906101000a900473ffffffffffffffffffffffffffffffffffffffff1673ffffffffffffffffffffffffffffffffffffffff163373ffffffffffffffffffffffffffffffffffffffff1614610bc157600080fd5b60006040518060e0016040528089815260200188815260200187815260200186815260200185815260200184815260200183815250905080600160008a8152602001908152602001600020600082015181600001556020820151816001019081610c2b919061158f565b506040820151816002019081610c41919061158f565b506060820151816003019081610c57919061158f565b506080820151816004015560a0820151816005015560c082015181600601559050507ffdbe2a012c10ec01592653978eaa09b5ca60b143a0e617505b2ebcbd911ec5b8878584604051610cac939291906116cc565b60405180910390a15050505050505050565b6000819050919050565b610cd181610cbe565b82525050565b6000602082019050610cec6000830184610cc8565b92915050565b6000604051905090565b600080fd5b600080fd5b600073ffffffffffffffffffffffffffffffffffffffff82169050919050565b6000610d3182610d06565b9050919050565b610d4181610d26565b8114610d4c57600080fd5b50565b600081359050610d5e81610d38565b92915050565b600060208284031215610d7a57610d79610cfc565b5b6000610d8884828501610d4f565b91505092915050565b610d9a81610cbe565b8114610da557600080fd5b50565b600081359050610db781610d91565b92915050565b60008060408385031215610dd457610dd3610cfc565b5b6000610de285828601610d4f565b9250506020610df385828601610da8565b9150509250929050565b610e0681610cbe565b82525050565b600081519050919050565b600082825260208201905092915050565b60005b83811015610e46578082015181840152602081019050610e2b565b60008484015250505050565b6000601f19601f8301169050919050565b6000610e6e82610e0c565b610e788185610e17565b9350610e88818560208601610e28565b610e9181610e52565b840191505092915050565b600060e083016000830151610eb46000860182610dfd565b5060208301518482036020860152610ecc8282610e63565b91505060408301518482036040860152610ee68282610e63565b91505060608301518482036060860152610f008282610e63565b9150506080830151610f156080860182610dfd565b5060a0830151610f2860a0860182610dfd565b5060c0830151610f3b60c0860182610dfd565b508091505092915050565b6000604082019050610f5b6000830185610cc8565b8181036020830152610f6d8184610e9c565b90509392505050565b610f7f81610d26565b82525050565b6000602082019050610f9a6000830184610f76565b92915050565b600060208284031215610fb657610fb5610cfc565b5b6000610fc484828501610da8565b91505092915050565b600082825260208201905092915050565b6000610fe982610e0c565b610ff38185610fcd565b9350611003818560208601610e28565b61100c81610e52565b840191505092915050565b600060e08201905061102c600083018a610cc8565b818103602083015261103e8189610fde565b905081810360408301526110528188610fde565b905081810360608301526110668187610fde565b90506110756080830186610cc8565b61108260a0830185610cc8565b61108f60c0830184610cc8565b98975050505050505050565b600080fd5b600080fd5b7f4e487b7100000000000000000000000000000000000000000000000000000000600052604160045260246000fd5b6110dd82610e52565b810181811067ffffffffffffffff821117156110fc576110fb6110a5565b5b80604052505050565b600061110f610cf2565b905061111b82826110d4565b919050565b600067ffffffffffffffff82111561113b5761113a6110a5565b5b61114482610e52565b9050602081019050919050565b82818337600083830152505050565b600061117361116e84611120565b611105565b90508281526020810184848401111561118f5761118e6110a0565b5b61119a848285611151565b509392505050565b600082601f8301126111b7576111b661109b565b5b81356111c7848260208601611160565b91505092915050565b600080600080600080600060e0888a0312156111ef576111ee610cfc565b5b60006111fd8a828b01610da8565b975050602088013567ffffffffffffffff81111561121e5761121d610d01565b5b61122a8a828b016111a2565b965050604088013567ffffffffffffffff81111561124b5761124a610d01565b5b6112578a828b016111a2565b955050606088013567ffffffffffffffff81111561127857611277610d01565b5b6112848a828b016111a2565b94505060806112958a828b01610da8565b93505060a06112a68a828b01610da8565b92505060c06112b78a828b01610da8565b91505092959891949750929550565b600081905092915050565b50565b60006112e16000836112c6565b91506112ec826112d1565b600082019050919050565b6000611302826112d4565b9150819050919050565b7f4e487b7100000000000000000000000000000000000000000000000000000000600052602260045260246000fd5b6000600282049050600182168061135357607f821691505b6020821081036113665761136561130c565b5b50919050565b7f4e487b7100000000000000000000000000000000000000000000000000000000600052601160045260246000fd5b60006113a682610cbe565b91507fffffffffffffffffffffffffffffffffffffffffffffffffffffffffffffffff82036113d8576113d761136c565b5b600182019050919050565b60008190508160005260206000209050919050565b60006020601f8301049050919050565b600082821b905092915050565b6000600883026114457fffffffffffffffffffffffffffffffffffffffffffffffffffffffffffffffff82611408565b61144f8683611408565b95508019841693508086168417925050509392505050565b6000819050919050565b600061148c61148761148284610cbe565b611467565b610cbe565b9050919050565b6000819050919050565b6114a683611471565b6114ba6114b282611493565b848454611415565b825550505050565b600090565b6114cf6114c2565b6114da81848461149d565b505050565b5b818110156114fe576114f36000826114c7565b6001810190506114e0565b5050565b601f82111561154357611514816113e3565b61151d846113f8565b8101602085101561152c578190505b611540611538856113f8565b8301826114df565b50505b505050565b600082821c905092915050565b600061156660001984600802611548565b1980831691505092915050565b600061157f8383611555565b9150826002028217905092915050565b61159882610e0c565b67ffffffffffffffff8111156115b1576115b06110a5565b5b6115bb825461133b565b6115c6828285611502565b600060209050601f8311600181146115f957600084156115e7578287015190505b6115f18582611573565b865550611659565b601f198416611607866113e3565b60005b8281101561162f5784890151825560018201915060208501945060208101905061160a565b8683101561164c5784890151611648601f891682611555565b8355505b6001600288020188555050505b505050505050565b600061166c82610cbe565b915061167783610cbe565b925082820390508181111561168f5761168e61136c565b5b92915050565b60006060820190506116aa6000830186610f76565b6116b76020830185610cc8565b6116c46040830184610cc8565b949350505050565b600060608201905081810360008301526116e68186610fde565b90506116f56020830185610cc8565b6117026040830184610cc8565b94935050505056fea264697066735822122010db4d47121c264a4377818b2f7767651b1ef331109d2d63217249b94de031ac64736f6c63430008110033",
  "linkReferences": {},
  "deployedLinkReferences": {}
}