{
  "_format": "hh-sol-artifact-1",
  "contractName": "Dappazon",
  "sourceName": "contracts/Dappazon.sol",
  "abi": [
    {
      "inputs": [],
      "stateMutability": "nonpayable",
      "type": "constructor"
    },
    {
      "inputs": [
        {
          "internalType": "uint256",
          "name": "",
          "type": "uint256"
        }
      ],
      "name": "items",
      "outputs": [
        {
          "internalType": "uint256",
          "name": "id",
          "type": "uint256"
        },
        {
          "internalType": "string",
          "name": "name",
          "type": "string"
        },
        {
          "internalType": "string",
          "name": "category",
          "type": "string"
        },
        {
          "internalType": "string",
          "name": "image",
          "type": "string"
        },
        {
          "internalType": "uint256",
          "name": "cost",
          "type": "uint256"
        },
        {
          "internalType": "uint256",
          "name": "rating",
          "type": "uint256"
        },
        {
          "internalType": "uint256",
          "name": "stock",
          "type": "uint256"
        }
      ],
      "stateMutability": "view",
      "type": "function"
    },
    {
      "inputs": [
        {
          "internalType": "uint256",
          "name": "_id",
          "type": "uint256"
        },
        {
          "internalType": "string",
          "name": "_name",
          "type": "string"
        },
        {
          "internalType": "string",
          "name": "_category",
          "type": "string"
        },
        {
          "internalType": "string",
          "name": "_image",
          "type": "string"
        },
        {
          "internalType": "uint256",
          "name": "_cost",
          "type": "uint256"
        },
        {
          "internalType": "uint256",
          "name": "_rating",
          "type": "uint256"
        },
        {
          "internalType": "uint256",
          "name": "_stock",
          "type": "uint256"
        }
      ],
      "name": "list",
      "outputs": [],
      "stateMutability": "nonpayable",
      "type": "function"
    },
    {
      "inputs": [],
      "name": "owner",
      "outputs": [
        {
          "internalType": "address",
          "name": "",
          "type": "address"
        }
      ],
      "stateMutability": "view",
      "type": "function"
    }
  ],
  "bytecode": "0x608060405234801561001057600080fd5b50336000806101000a81548173ffffffffffffffffffffffffffffffffffffffff021916908373ffffffffffffffffffffffffffffffffffffffff160217905550610aab806100606000396000f3fe608060405234801561001057600080fd5b50600436106100415760003560e01c80638da5cb5b14610046578063bfb231d214610064578063eea8a7e81461009a575b600080fd5b61004e6100b6565b60405161005b91906103b7565b60405180910390f35b61007e6004803603810190610079919061041c565b6100da565b60405161009197969594939291906104e8565b60405180910390f35b6100b460048036038101906100af91906106a1565b6102b4565b005b60008054906101000a900473ffffffffffffffffffffffffffffffffffffffff1681565b6001602052806000526040600020600091509050806000015490806001018054610103906107c6565b80601f016020809104026020016040519081016040528092919081815260200182805461012f906107c6565b801561017c5780601f106101515761010080835404028352916020019161017c565b820191906000526020600020905b81548152906001019060200180831161015f57829003601f168201915b505050505090806002018054610191906107c6565b80601f01602080910402602001604051908101604052809291908181526020018280546101bd906107c6565b801561020a5780601f106101df5761010080835404028352916020019161020a565b820191906000526020600020905b8154815290600101906020018083116101ed57829003601f168201915b50505050509080600301805461021f906107c6565b80601f016020809104026020016040519081016040528092919081815260200182805461024b906107c6565b80156102985780601f1061026d57610100808354040283529160200191610298565b820191906000526020600020905b81548152906001019060200180831161027b57829003601f168201915b5050505050908060040154908060050154908060060154905087565b60006040518060e0016040528089815260200188815260200187815260200186815260200185815260200184815260200183815250905080600160008a815260200190815260200160002060008201518160000155602082015181600101908161031e91906109a3565b50604082015181600201908161033491906109a3565b50606082015181600301908161034a91906109a3565b506080820151816004015560a0820151816005015560c082015181600601559050505050505050505050565b600073ffffffffffffffffffffffffffffffffffffffff82169050919050565b60006103a182610376565b9050919050565b6103b181610396565b82525050565b60006020820190506103cc60008301846103a8565b92915050565b6000604051905090565b600080fd5b600080fd5b6000819050919050565b6103f9816103e6565b811461040457600080fd5b50565b600081359050610416816103f0565b92915050565b600060208284031215610432576104316103dc565b5b600061044084828501610407565b91505092915050565b610452816103e6565b82525050565b600081519050919050565b600082825260208201905092915050565b60005b83811015610492578082015181840152602081019050610477565b60008484015250505050565b6000601f19601f8301169050919050565b60006104ba82610458565b6104c48185610463565b93506104d4818560208601610474565b6104dd8161049e565b840191505092915050565b600060e0820190506104fd600083018a610449565b818103602083015261050f81896104af565b9050818103604083015261052381886104af565b9050818103606083015261053781876104af565b90506105466080830186610449565b61055360a0830185610449565b61056060c0830184610449565b98975050505050505050565b600080fd5b600080fd5b7f4e487b7100000000000000000000000000000000000000000000000000000000600052604160045260246000fd5b6105ae8261049e565b810181811067ffffffffffffffff821117156105cd576105cc610576565b5b80604052505050565b60006105e06103d2565b90506105ec82826105a5565b919050565b600067ffffffffffffffff82111561060c5761060b610576565b5b6106158261049e565b9050602081019050919050565b82818337600083830152505050565b600061064461063f846105f1565b6105d6565b9050828152602081018484840111156106605761065f610571565b5b61066b848285610622565b509392505050565b600082601f8301126106885761068761056c565b5b8135610698848260208601610631565b91505092915050565b600080600080600080600060e0888a0312156106c0576106bf6103dc565b5b60006106ce8a828b01610407565b975050602088013567ffffffffffffffff8111156106ef576106ee6103e1565b5b6106fb8a828b01610673565b965050604088013567ffffffffffffffff81111561071c5761071b6103e1565b5b6107288a828b01610673565b955050606088013567ffffffffffffffff811115610749576107486103e1565b5b6107558a828b01610673565b94505060806107668a828b01610407565b93505060a06107778a828b01610407565b92505060c06107888a828b01610407565b91505092959891949750929550565b7f4e487b7100000000000000000000000000000000000000000000000000000000600052602260045260246000fd5b600060028204905060018216806107de57607f821691505b6020821081036107f1576107f0610797565b5b50919050565b60008190508160005260206000209050919050565b60006020601f8301049050919050565b600082821b905092915050565b6000600883026108597fffffffffffffffffffffffffffffffffffffffffffffffffffffffffffffffff8261081c565b610863868361081c565b95508019841693508086168417925050509392505050565b6000819050919050565b60006108a061089b610896846103e6565b61087b565b6103e6565b9050919050565b6000819050919050565b6108ba83610885565b6108ce6108c6826108a7565b848454610829565b825550505050565b600090565b6108e36108d6565b6108ee8184846108b1565b505050565b5b81811015610912576109076000826108db565b6001810190506108f4565b5050565b601f82111561095757610928816107f7565b6109318461080c565b81016020851015610940578190505b61095461094c8561080c565b8301826108f3565b50505b505050565b600082821c905092915050565b600061097a6000198460080261095c565b1980831691505092915050565b60006109938383610969565b9150826002028217905092915050565b6109ac82610458565b67ffffffffffffffff8111156109c5576109c4610576565b5b6109cf82546107c6565b6109da828285610916565b600060209050601f831160018114610a0d57600084156109fb578287015190505b610a058582610987565b865550610a6d565b601f198416610a1b866107f7565b60005b82811015610a4357848901518255600182019150602085019450602081019050610a1e565b86831015610a605784890151610a5c601f891682610969565b8355505b6001600288020188555050505b50505050505056fea26469706673582212200c4ab206f30ba94d95944c08ee04bbdbc7f8405c17a61877a83a46ddd3faf76564736f6c63430008110033",
  "linkReferences": {},
  "deployedLinkReferences": {}
}