{
  "_format": "hh-sol-artifact-1",
  "contractName": "Dappazon",
  "sourceName": "contracts/Dappazon.sol",
  "abi": [
    {
      "inputs": [],
      "stateMutability": "nonpayable",
      "type": "constructor"
    },
    {
      "anonymous": false,
      "inputs": [
        {
          "indexed": false,
          "internalType": "string",
          "name": "name",
          "type": "string"
        },
        {
          "indexed": false,
          "internalType": "uint256",
          "name": "cost",
          "type": "uint256"
        },
        {
          "indexed": false,
          "internalType": "uint256",
          "name": "quantity",
          "type": "uint256"
        }
      ],
      "name": "List",
      "type": "event"
    },
    {
      "inputs": [
        {
          "internalType": "uint256",
          "name": "_id",
          "type": "uint256"
        }
      ],
      "name": "buy",
      "outputs": [],
      "stateMutability": "payable",
      "type": "function"
    },
    {
      "inputs": [
        {
          "internalType": "uint256",
          "name": "",
          "type": "uint256"
        }
      ],
      "name": "items",
      "outputs": [
        {
          "internalType": "uint256",
          "name": "id",
          "type": "uint256"
        },
        {
          "internalType": "string",
          "name": "name",
          "type": "string"
        },
        {
          "internalType": "string",
          "name": "category",
          "type": "string"
        },
        {
          "internalType": "string",
          "name": "image",
          "type": "string"
        },
        {
          "internalType": "uint256",
          "name": "cost",
          "type": "uint256"
        },
        {
          "internalType": "uint256",
          "name": "rating",
          "type": "uint256"
        },
        {
          "internalType": "uint256",
          "name": "stock",
          "type": "uint256"
        }
      ],
      "stateMutability": "view",
      "type": "function"
    },
    {
      "inputs": [
        {
          "internalType": "uint256",
          "name": "_id",
          "type": "uint256"
        },
        {
          "internalType": "string",
          "name": "_name",
          "type": "string"
        },
        {
          "internalType": "string",
          "name": "_category",
          "type": "string"
        },
        {
          "internalType": "string",
          "name": "_image",
          "type": "string"
        },
        {
          "internalType": "uint256",
          "name": "_cost",
          "type": "uint256"
        },
        {
          "internalType": "uint256",
          "name": "_rating",
          "type": "uint256"
        },
        {
          "internalType": "uint256",
          "name": "_stock",
          "type": "uint256"
        }
      ],
      "name": "list",
      "outputs": [],
      "stateMutability": "nonpayable",
      "type": "function"
    },
    {
      "inputs": [
        {
          "internalType": "address",
          "name": "",
          "type": "address"
        }
      ],
      "name": "orderCount",
      "outputs": [
        {
          "internalType": "uint256",
          "name": "",
          "type": "uint256"
        }
      ],
      "stateMutability": "view",
      "type": "function"
    },
    {
      "inputs": [
        {
          "internalType": "address",
          "name": "",
          "type": "address"
        },
        {
          "internalType": "uint256",
          "name": "",
          "type": "uint256"
        }
      ],
      "name": "orders",
      "outputs": [
        {
          "internalType": "uint256",
          "name": "time",
          "type": "uint256"
        },
        {
          "components": [
            {
              "internalType": "uint256",
              "name": "id",
              "type": "uint256"
            },
            {
              "internalType": "string",
              "name": "name",
              "type": "string"
            },
            {
              "internalType": "string",
              "name": "category",
              "type": "string"
            },
            {
              "internalType": "string",
              "name": "image",
              "type": "string"
            },
            {
              "internalType": "uint256",
              "name": "cost",
              "type": "uint256"
            },
            {
              "internalType": "uint256",
              "name": "rating",
              "type": "uint256"
            },
            {
              "internalType": "uint256",
              "name": "stock",
              "type": "uint256"
            }
          ],
          "internalType": "struct Dappazon.Item",
          "name": "item",
          "type": "tuple"
        }
      ],
      "stateMutability": "view",
      "type": "function"
    },
    {
      "inputs": [],
      "name": "owner",
      "outputs": [
        {
          "internalType": "address",
          "name": "",
          "type": "address"
        }
      ],
      "stateMutability": "view",
      "type": "function"
    }
  ],
  "bytecode": "0x608060405234801561001057600080fd5b50336000806101000a81548173ffffffffffffffffffffffffffffffffffffffff021916908373ffffffffffffffffffffffffffffffffffffffff1602179055506114c1806100606000396000f3fe6080604052600436106100555760003560e01c8063713d856b1461005a578063793b8c6d146100975780638da5cb5b146100d5578063bfb231d214610100578063d96a094a14610143578063eea8a7e81461015f575b600080fd5b34801561006657600080fd5b50610081600480360381019061007c9190610b2e565b610188565b60405161008e9190610b74565b60405180910390f35b3480156100a357600080fd5b506100be60048036038101906100b99190610bbb565b6101a0565b6040516100cc929190610d44565b60405180910390f35b3480156100e157600080fd5b506100ea6103b9565b6040516100f79190610d83565b60405180910390f35b34801561010c57600080fd5b5061012760048036038101906101229190610d9e565b6103dd565b60405161013a9796959493929190610e15565b60405180910390f35b61015d60048036038101906101589190610d9e565b6105b7565b005b34801561016b57600080fd5b5061018660048036038101906101819190610fce565b610967565b005b60026020528060005260406000206000915090505481565b600360205281600052604060002060205280600052604060002060009150915050806000015490806001016040518060e0016040529081600082015481526020016001820180546101f0906110f3565b80601f016020809104026020016040519081016040528092919081815260200182805461021c906110f3565b80156102695780601f1061023e57610100808354040283529160200191610269565b820191906000526020600020905b81548152906001019060200180831161024c57829003601f168201915b50505050508152602001600282018054610282906110f3565b80601f01602080910402602001604051908101604052809291908181526020018280546102ae906110f3565b80156102fb5780601f106102d0576101008083540402835291602001916102fb565b820191906000526020600020905b8154815290600101906020018083116102de57829003601f168201915b50505050508152602001600382018054610314906110f3565b80601f0160208091040260200160405190810160405280929190818152602001828054610340906110f3565b801561038d5780601f106103625761010080835404028352916020019161038d565b820191906000526020600020905b81548152906001019060200180831161037057829003601f168201915b505050505081526020016004820154815260200160058201548152602001600682015481525050905082565b60008054906101000a900473ffffffffffffffffffffffffffffffffffffffff1681565b6001602052806000526040600020600091509050806000015490806001018054610406906110f3565b80601f0160208091040260200160405190810160405280929190818152602001828054610432906110f3565b801561047f5780601f106104545761010080835404028352916020019161047f565b820191906000526020600020905b81548152906001019060200180831161046257829003601f168201915b505050505090806002018054610494906110f3565b80601f01602080910402602001604051908101604052809291908181526020018280546104c0906110f3565b801561050d5780601f106104e25761010080835404028352916020019161050d565b820191906000526020600020905b8154815290600101906020018083116104f057829003601f168201915b505050505090806003018054610522906110f3565b80601f016020809104026020016040519081016040528092919081815260200182805461054e906110f3565b801561059b5780601f106105705761010080835404028352916020019161059b565b820191906000526020600020905b81548152906001019060200180831161057e57829003601f168201915b5050505050908060040154908060050154908060060154905087565b6000600160008381526020019081526020016000206040518060e0016040529081600082015481526020016001820180546105f1906110f3565b80601f016020809104026020016040519081016040528092919081815260200182805461061d906110f3565b801561066a5780601f1061063f5761010080835404028352916020019161066a565b820191906000526020600020905b81548152906001019060200180831161064d57829003601f168201915b50505050508152602001600282018054610683906110f3565b80601f01602080910402602001604051908101604052809291908181526020018280546106af906110f3565b80156106fc5780601f106106d1576101008083540402835291602001916106fc565b820191906000526020600020905b8154815290600101906020018083116106df57829003601f168201915b50505050508152602001600382018054610715906110f3565b80601f0160208091040260200160405190810160405280929190818152602001828054610741906110f3565b801561078e5780601f106107635761010080835404028352916020019161078e565b820191906000526020600020905b81548152906001019060200180831161077157829003601f168201915b505050505081526020016004820154815260200160058201548152602001600682015481525050905060006040518060400160405280428152602001838152509050600260003373ffffffffffffffffffffffffffffffffffffffff1673ffffffffffffffffffffffffffffffffffffffff168152602001908152602001600020600081548092919061082090611153565b919050555080600360003373ffffffffffffffffffffffffffffffffffffffff1673ffffffffffffffffffffffffffffffffffffffff1681526020019081526020016000206000600260003373ffffffffffffffffffffffffffffffffffffffff1673ffffffffffffffffffffffffffffffffffffffff168152602001908152602001600020548152602001908152602001600020600082015181600001556020820151816001016000820151816000015560208201518160010190816108e79190611347565b5060408201518160020190816108fd9190611347565b5060608201518160030190816109139190611347565b506080820151816004015560a0820151816005015560c08201518160060155505090505060018260c001516109489190611419565b6001600085815260200190815260200160002060060181905550505050565b60008054906101000a900473ffffffffffffffffffffffffffffffffffffffff1673ffffffffffffffffffffffffffffffffffffffff163373ffffffffffffffffffffffffffffffffffffffff16146109bf57600080fd5b60006040518060e0016040528089815260200188815260200187815260200186815260200185815260200184815260200183815250905080600160008a8152602001908152602001600020600082015181600001556020820151816001019081610a299190611347565b506040820151816002019081610a3f9190611347565b506060820151816003019081610a559190611347565b506080820151816004015560a0820151816005015560c082015181600601559050507ffdbe2a012c10ec01592653978eaa09b5ca60b143a0e617505b2ebcbd911ec5b8878584604051610aaa9392919061144d565b60405180910390a15050505050505050565b6000604051905090565b600080fd5b600080fd5b600073ffffffffffffffffffffffffffffffffffffffff82169050919050565b6000610afb82610ad0565b9050919050565b610b0b81610af0565b8114610b1657600080fd5b50565b600081359050610b2881610b02565b92915050565b600060208284031215610b4457610b43610ac6565b5b6000610b5284828501610b19565b91505092915050565b6000819050919050565b610b6e81610b5b565b82525050565b6000602082019050610b896000830184610b65565b92915050565b610b9881610b5b565b8114610ba357600080fd5b50565b600081359050610bb581610b8f565b92915050565b60008060408385031215610bd257610bd1610ac6565b5b6000610be085828601610b19565b9250506020610bf185828601610ba6565b9150509250929050565b610c0481610b5b565b82525050565b600081519050919050565b600082825260208201905092915050565b60005b83811015610c44578082015181840152602081019050610c29565b60008484015250505050565b6000601f19601f8301169050919050565b6000610c6c82610c0a565b610c768185610c15565b9350610c86818560208601610c26565b610c8f81610c50565b840191505092915050565b600060e083016000830151610cb26000860182610bfb565b5060208301518482036020860152610cca8282610c61565b91505060408301518482036040860152610ce48282610c61565b91505060608301518482036060860152610cfe8282610c61565b9150506080830151610d136080860182610bfb565b5060a0830151610d2660a0860182610bfb565b5060c0830151610d3960c0860182610bfb565b508091505092915050565b6000604082019050610d596000830185610b65565b8181036020830152610d6b8184610c9a565b90509392505050565b610d7d81610af0565b82525050565b6000602082019050610d986000830184610d74565b92915050565b600060208284031215610db457610db3610ac6565b5b6000610dc284828501610ba6565b91505092915050565b600082825260208201905092915050565b6000610de782610c0a565b610df18185610dcb565b9350610e01818560208601610c26565b610e0a81610c50565b840191505092915050565b600060e082019050610e2a600083018a610b65565b8181036020830152610e3c8189610ddc565b90508181036040830152610e508188610ddc565b90508181036060830152610e648187610ddc565b9050610e736080830186610b65565b610e8060a0830185610b65565b610e8d60c0830184610b65565b98975050505050505050565b600080fd5b600080fd5b7f4e487b7100000000000000000000000000000000000000000000000000000000600052604160045260246000fd5b610edb82610c50565b810181811067ffffffffffffffff82111715610efa57610ef9610ea3565b5b80604052505050565b6000610f0d610abc565b9050610f198282610ed2565b919050565b600067ffffffffffffffff821115610f3957610f38610ea3565b5b610f4282610c50565b9050602081019050919050565b82818337600083830152505050565b6000610f71610f6c84610f1e565b610f03565b905082815260208101848484011115610f8d57610f8c610e9e565b5b610f98848285610f4f565b509392505050565b600082601f830112610fb557610fb4610e99565b5b8135610fc5848260208601610f5e565b91505092915050565b600080600080600080600060e0888a031215610fed57610fec610ac6565b5b6000610ffb8a828b01610ba6565b975050602088013567ffffffffffffffff81111561101c5761101b610acb565b5b6110288a828b01610fa0565b965050604088013567ffffffffffffffff81111561104957611048610acb565b5b6110558a828b01610fa0565b955050606088013567ffffffffffffffff81111561107657611075610acb565b5b6110828a828b01610fa0565b94505060806110938a828b01610ba6565b93505060a06110a48a828b01610ba6565b92505060c06110b58a828b01610ba6565b91505092959891949750929550565b7f4e487b7100000000000000000000000000000000000000000000000000000000600052602260045260246000fd5b6000600282049050600182168061110b57607f821691505b60208210810361111e5761111d6110c4565b5b50919050565b7f4e487b7100000000000000000000000000000000000000000000000000000000600052601160045260246000fd5b600061115e82610b5b565b91507fffffffffffffffffffffffffffffffffffffffffffffffffffffffffffffffff82036111905761118f611124565b5b600182019050919050565b60008190508160005260206000209050919050565b60006020601f8301049050919050565b600082821b905092915050565b6000600883026111fd7fffffffffffffffffffffffffffffffffffffffffffffffffffffffffffffffff826111c0565b61120786836111c0565b95508019841693508086168417925050509392505050565b6000819050919050565b600061124461123f61123a84610b5b565b61121f565b610b5b565b9050919050565b6000819050919050565b61125e83611229565b61127261126a8261124b565b8484546111cd565b825550505050565b600090565b61128761127a565b611292818484611255565b505050565b5b818110156112b6576112ab60008261127f565b600181019050611298565b5050565b601f8211156112fb576112cc8161119b565b6112d5846111b0565b810160208510156112e4578190505b6112f86112f0856111b0565b830182611297565b50505b505050565b600082821c905092915050565b600061131e60001984600802611300565b1980831691505092915050565b6000611337838361130d565b9150826002028217905092915050565b61135082610c0a565b67ffffffffffffffff81111561136957611368610ea3565b5b61137382546110f3565b61137e8282856112ba565b600060209050601f8311600181146113b1576000841561139f578287015190505b6113a9858261132b565b865550611411565b601f1984166113bf8661119b565b60005b828110156113e7578489015182556001820191506020850194506020810190506113c2565b868310156114045784890151611400601f89168261130d565b8355505b6001600288020188555050505b505050505050565b600061142482610b5b565b915061142f83610b5b565b925082820390508181111561144757611446611124565b5b92915050565b600060608201905081810360008301526114678186610ddc565b90506114766020830185610b65565b6114836040830184610b65565b94935050505056fea2646970667358221220b121b8249e8c1c87db61598c5d6aa4edc3656765b93161465a670119092c46e664736f6c63430008110033",
  "linkReferences": {},
  "deployedLinkReferences": {}
}