{
  "_format": "hh-sol-artifact-1",
  "contractName": "Dappazon",
  "sourceName": "contracts/Dappazon.sol",
  "abi": [
    {
      "inputs": [],
      "stateMutability": "nonpayable",
      "type": "constructor"
    },
    {
      "anonymous": false,
      "inputs": [
        {
          "indexed": false,
          "internalType": "string",
          "name": "name",
          "type": "string"
        },
        {
          "indexed": false,
          "internalType": "uint256",
          "name": "cost",
          "type": "uint256"
        },
        {
          "indexed": false,
          "internalType": "uint256",
          "name": "quantity",
          "type": "uint256"
        }
      ],
      "name": "List",
      "type": "event"
    },
    {
      "inputs": [
        {
          "internalType": "uint256",
          "name": "",
          "type": "uint256"
        }
      ],
      "name": "items",
      "outputs": [
        {
          "internalType": "uint256",
          "name": "id",
          "type": "uint256"
        },
        {
          "internalType": "string",
          "name": "name",
          "type": "string"
        },
        {
          "internalType": "string",
          "name": "category",
          "type": "string"
        },
        {
          "internalType": "string",
          "name": "image",
          "type": "string"
        },
        {
          "internalType": "uint256",
          "name": "cost",
          "type": "uint256"
        },
        {
          "internalType": "uint256",
          "name": "rating",
          "type": "uint256"
        },
        {
          "internalType": "uint256",
          "name": "stock",
          "type": "uint256"
        }
      ],
      "stateMutability": "view",
      "type": "function"
    },
    {
      "inputs": [
        {
          "internalType": "uint256",
          "name": "_id",
          "type": "uint256"
        },
        {
          "internalType": "string",
          "name": "_name",
          "type": "string"
        },
        {
          "internalType": "string",
          "name": "_category",
          "type": "string"
        },
        {
          "internalType": "string",
          "name": "_image",
          "type": "string"
        },
        {
          "internalType": "uint256",
          "name": "_cost",
          "type": "uint256"
        },
        {
          "internalType": "uint256",
          "name": "_rating",
          "type": "uint256"
        },
        {
          "internalType": "uint256",
          "name": "_stock",
          "type": "uint256"
        }
      ],
      "name": "list",
      "outputs": [],
      "stateMutability": "nonpayable",
      "type": "function"
    },
    {
      "inputs": [],
      "name": "owner",
      "outputs": [
        {
          "internalType": "address",
          "name": "",
          "type": "address"
        }
      ],
      "stateMutability": "view",
      "type": "function"
    }
  ],
  "bytecode": "0x608060405234801561001057600080fd5b50336000806101000a81548173ffffffffffffffffffffffffffffffffffffffff021916908373ffffffffffffffffffffffffffffffffffffffff160217905550610b7c806100606000396000f3fe608060405234801561001057600080fd5b50600436106100415760003560e01c80638da5cb5b14610046578063bfb231d214610064578063eea8a7e81461009a575b600080fd5b61004e6100b6565b60405161005b919061044a565b60405180910390f35b61007e600480360381019061007991906104af565b6100da565b604051610091979695949392919061057b565b60405180910390f35b6100b460048036038101906100af9190610734565b6102b4565b005b60008054906101000a900473ffffffffffffffffffffffffffffffffffffffff1681565b600160205280600052604060002060009150905080600001549080600101805461010390610859565b80601f016020809104026020016040519081016040528092919081815260200182805461012f90610859565b801561017c5780601f106101515761010080835404028352916020019161017c565b820191906000526020600020905b81548152906001019060200180831161015f57829003601f168201915b50505050509080600201805461019190610859565b80601f01602080910402602001604051908101604052809291908181526020018280546101bd90610859565b801561020a5780601f106101df5761010080835404028352916020019161020a565b820191906000526020600020905b8154815290600101906020018083116101ed57829003601f168201915b50505050509080600301805461021f90610859565b80601f016020809104026020016040519081016040528092919081815260200182805461024b90610859565b80156102985780601f1061026d57610100808354040283529160200191610298565b820191906000526020600020905b81548152906001019060200180831161027b57829003601f168201915b5050505050908060040154908060050154908060060154905087565b60008054906101000a900473ffffffffffffffffffffffffffffffffffffffff1673ffffffffffffffffffffffffffffffffffffffff163373ffffffffffffffffffffffffffffffffffffffff161461030c57600080fd5b60006040518060e0016040528089815260200188815260200187815260200186815260200185815260200184815260200183815250905080600160008a81526020019081526020016000206000820151816000015560208201518160010190816103769190610a36565b50604082015181600201908161038c9190610a36565b5060608201518160030190816103a29190610a36565b506080820151816004015560a0820151816005015560c082015181600601559050507ffdbe2a012c10ec01592653978eaa09b5ca60b143a0e617505b2ebcbd911ec5b88785846040516103f793929190610b08565b60405180910390a15050505050505050565b600073ffffffffffffffffffffffffffffffffffffffff82169050919050565b600061043482610409565b9050919050565b61044481610429565b82525050565b600060208201905061045f600083018461043b565b92915050565b6000604051905090565b600080fd5b600080fd5b6000819050919050565b61048c81610479565b811461049757600080fd5b50565b6000813590506104a981610483565b92915050565b6000602082840312156104c5576104c461046f565b5b60006104d38482850161049a565b91505092915050565b6104e581610479565b82525050565b600081519050919050565b600082825260208201905092915050565b60005b8381101561052557808201518184015260208101905061050a565b60008484015250505050565b6000601f19601f8301169050919050565b600061054d826104eb565b61055781856104f6565b9350610567818560208601610507565b61057081610531565b840191505092915050565b600060e082019050610590600083018a6104dc565b81810360208301526105a28189610542565b905081810360408301526105b68188610542565b905081810360608301526105ca8187610542565b90506105d960808301866104dc565b6105e660a08301856104dc565b6105f360c08301846104dc565b98975050505050505050565b600080fd5b600080fd5b7f4e487b7100000000000000000000000000000000000000000000000000000000600052604160045260246000fd5b61064182610531565b810181811067ffffffffffffffff821117156106605761065f610609565b5b80604052505050565b6000610673610465565b905061067f8282610638565b919050565b600067ffffffffffffffff82111561069f5761069e610609565b5b6106a882610531565b9050602081019050919050565b82818337600083830152505050565b60006106d76106d284610684565b610669565b9050828152602081018484840111156106f3576106f2610604565b5b6106fe8482856106b5565b509392505050565b600082601f83011261071b5761071a6105ff565b5b813561072b8482602086016106c4565b91505092915050565b600080600080600080600060e0888a0312156107535761075261046f565b5b60006107618a828b0161049a565b975050602088013567ffffffffffffffff81111561078257610781610474565b5b61078e8a828b01610706565b965050604088013567ffffffffffffffff8111156107af576107ae610474565b5b6107bb8a828b01610706565b955050606088013567ffffffffffffffff8111156107dc576107db610474565b5b6107e88a828b01610706565b94505060806107f98a828b0161049a565b93505060a061080a8a828b0161049a565b92505060c061081b8a828b0161049a565b91505092959891949750929550565b7f4e487b7100000000000000000000000000000000000000000000000000000000600052602260045260246000fd5b6000600282049050600182168061087157607f821691505b6020821081036108845761088361082a565b5b50919050565b60008190508160005260206000209050919050565b60006020601f8301049050919050565b600082821b905092915050565b6000600883026108ec7fffffffffffffffffffffffffffffffffffffffffffffffffffffffffffffffff826108af565b6108f686836108af565b95508019841693508086168417925050509392505050565b6000819050919050565b600061093361092e61092984610479565b61090e565b610479565b9050919050565b6000819050919050565b61094d83610918565b6109616109598261093a565b8484546108bc565b825550505050565b600090565b610976610969565b610981818484610944565b505050565b5b818110156109a55761099a60008261096e565b600181019050610987565b5050565b601f8211156109ea576109bb8161088a565b6109c48461089f565b810160208510156109d3578190505b6109e76109df8561089f565b830182610986565b50505b505050565b600082821c905092915050565b6000610a0d600019846008026109ef565b1980831691505092915050565b6000610a2683836109fc565b9150826002028217905092915050565b610a3f826104eb565b67ffffffffffffffff811115610a5857610a57610609565b5b610a628254610859565b610a6d8282856109a9565b600060209050601f831160018114610aa05760008415610a8e578287015190505b610a988582610a1a565b865550610b00565b601f198416610aae8661088a565b60005b82811015610ad657848901518255600182019150602085019450602081019050610ab1565b86831015610af35784890151610aef601f8916826109fc565b8355505b6001600288020188555050505b505050505050565b60006060820190508181036000830152610b228186610542565b9050610b3160208301856104dc565b610b3e60408301846104dc565b94935050505056fea2646970667358221220ed8b1ec6eda5fa80cde758ae13f7fec3523ab1ab6417b62bd1f267228818a80864736f6c63430008110033",
  "linkReferences": {},
  "deployedLinkReferences": {}
}